S0200000417474696E79313632342053554E2073656E736F722076322E7372656326
S11300000C9412010C942F010C942F010C94F50EF6
S11300100C942F010C942F010C942F010C942F019C
S11300200C942F010C942F010C942F010C942F018C
S11300300C942F010C942F010C942F010C942F017C
S11300400C942F010C942F010C942F010C942F016C
S11300500C942F010C942F010C942F010C942F015C
S11300600C942F010C942F010C942F010C942F014C
S11300700C942F010C942F01036EDB363D9A999951
S1130080993DABAAAA2A3E000000803F084AD73B0C
S11300903BCE016E84BCBFFDC12F3D6C74319ABD53
S11300A056833DDA3D00C77F11BED9E4BB4C3E9177
S11300B06BAAAABE000000803F072C7AA5BA6CC5C3
S11300C090DA3B9365FC8BBC53F810FD3C5692834D
S11300D04DBD879D3AB63DCBC9BF5BBE73DA0FC930
S11300E03F05A84CCDB2D44EB93836A9020C50B94C
S11300F0918688083CA6AAAA2ABE000000803F0672
S113010064EC1B3C04BC163E3BE5B93CC93C37C21D
S11301109E5A3D660498083EEA69AAAA3E00000079
S1130120803F6E616E00696E660000407A10F35A7B
S113013000A0724E18090010A5D4E80000E8764823
S1130140170000E40B54020000CA9A3B000000E1CF
S1130150F505000080969800000040420F00000062
S1130160A08601000000102700000000E803000042
S113017000006400000000000A000000000001000C
S1130180000000002C76D888DC674F0823DFC1DF2D
S1130190AE59E1B1B796E5E3E453C63AE651997630
S11301A096E8E6C28426EB898C9B62ED407C6FFC6A
S11301B0EFBC9C9F40F2BAA56FA5F490055A2AF7AC
S11301C05C936B6CF9676DC11BFCE0E40D47FEF5B5
S11301D020E6B500D0ED902E03009435770500801D
S11301E0841E080000204E0A000000C80C3333337C
S11301F0330F986E12831141EF8D2114893BE6551C
S113020016CFFEE6DB18D1844B381BF77C1D901DFE
S1130210A4BBE424203284725E228100C9F124EC60
S1130220A1E53D2711241FBECFEFCDBFDFE3DEBF25
S113023019E3A0E0B8E3EAE7F6E302C005900D9203
S1130240AA34B107D9F729E3AAE4B9E301C01D929E
S1130250A03CB207E1F70E941F0E0C94F91A0C940B
S11302600000E0E0F6E081E2808381E0818385EABA
S113027082831086118680E9828785E4838787E0FC
S11302808093A00083E384878091060680FDFCCFE1
S113029008958064E0E0F6E0858782858160828746
S11302A08091060680FDFCCF8091050681FFFCCF7E
S11302B0E0E0F6E082E08583848995890895CF9211
S11302C0DF92EF92FF920F931F93CF93DF93EB0193
S11302D08A019C01220F331F220F331F820F931FA9
S11302E09C01992314F42D5F3F4F3595279535953F
S11302F02795C90104960F2EF7E0EF2EF12CF02D6F
S1130300B7010E94B218EFE1F0E06F01C81AD90AF0
S1130310C9010196B7010E94B218E81BF90BCE017E
S11303200497069768F0C330D10519F40C151D0520
S11303304CF42A9749F40E171F0744F080E007C0D5
S113034081E005C081E003C080E001C081E0DF916D
S1130350CF911F910F91FF90EF90DF90CF90089570
S11303604F925F926F927F928F929F92AF92BF92C1
S1130370CF92DF92EF92FF920F931F93CF93DF936D
S1130380FC01EB015A0169016330710514F43197E2
S11303902C96CF0164E670E00E94B21882E090E0EF
S11303A04C01861A970ACF0160E971E00E94B218E5
S11303B0860E971EE459FD4EBF01FF0F880B990B63
S11303C00E94471220E030EA46EB53E40E944A14AC
S11303D00E9482122B013C012196BE01DD0F880B85
S11303E0990B0E94471221E03DEC44EF51E40E9436
S11303F04A140E9482129B01AC01C301B2010E9403
S11304009A102B013C01B501BB0C880B990B0E947F
S11304104712A30192010E949A102B013C01B401DE
S1130420990C880B990B0E944712A30192010E9418
S11304309A1020E030E94EEB54E40E9499104B01ED
S11304405C01B801110F880B990B0E94471220E040
S113045030E040E752E40E949D112B013C01B601BB
S1130460DD0C880B990B0E944712A30192010E9494
S11304709A102B013C01B701FF0C880B990B0E94C9
S1130480471220E030E041E655E40E949D119B01B3
S1130490AC01C301B2010E949A1020E030E040ECAC
S11304A051E40E949D119B01AC01C501B4010E945D
S11304B09A10DF91CF911F910F91FF90EF90DF90F1
S11304C0CF90BF90AF909F908F907F906F905F90F0
S11304D04F900895CF92DF92EF92FF926B017C01CF
S11304E028E83AE241E259E30E944A149B01AC0134
S11304F06DE07FE98CE097E40E9499109B01AC01C8
S1130500C701B6010E944A142AEB33EC42EB53E4D0
S11305100E949A1020E030E044EB53E40E94A412BD
S1130520FF90EF90DF90CF9008954F925F926F927B
S11305307F928F929F92AF92BF92CF92DF92EF926F
S1130540FF926B017C0149015A012BE831EE4AE626
S113055057E3C501B4010E944A142DEE37ED4DE96D
S11305605BE30E949A109B01AC01C501B4010E9497
S11305704A149B01AC016EEA71E185EF9FE30E948E
S113058099102B013C0125E33AEF4EE85CE3C701E7
S1130590B6010E944A140E94B7149B01AC01C30126
S11305A0B2010E944A142B013C0126EF3FEC43EDBB
S11305B058E3C501B4010E944A149B01AC016CE5E7
S11305C078EC83EA9CE30E9499104B015C0125E3DB
S11305D03AEF4EE05DE3C701B6010E944A140E945F
S11305E0B7149B01AC01C501B4010E944A149B01DC
S11305F0AC01C301B2010E949A104B015C0120E5D9
S113060037E746E55DE3C701B6010E944A140E943C
S1130610B7142CEE34E847E959E30E944A149B01CD
S1130620AC01C501B4010E949A109B01AC01C70141
S1130630B6010E949A10FF90EF90DF90CF90BF9088
S1130640AF909F908F907F906F905F904F900895A0
S11306508F929F92AF92BF92CF92DF92EF92FF92CE
S11306606B017C01CA01B9012AE534EC41EF54E481
S11306700E944A149B01AC016BE774E18AEF92E497
S11306800E9499104B015C012EE233E74AEB5BE3D5
S1130690C701B6010E9499106B017C0125E33AEF72
S11306A04EE85CE3C501B4010E944A140E94B714E9
S11306B02CE831EA4CE95BE30E944A149B01AC014B
S11306C0C701B6010E949910FF90EF90DF90CF9080
S11306D0BF90AF909F908F9008958F929F92AF920A
S11306E0BF92CF92DF92EF92FF926B017C012DE7D4
S11306F03CEF4FE254E30E944A142EE63FE045E506
S11307005CE30E949A104B015C0121E23FE247E066
S113071055E3C701B6010E944A149B01AC01C7010D
S1130720B6010E944A149B01AC01C501B4010E94A8
S113073099109B01AC01C701B6010E944A149B01A8
S1130740AC016CEA73E88BEB91E40E949910FF9082
S1130750EF90DF90CF90BF90AF909F908F900895CF
S11307608F929F92AF92BF92CF92DF92EF92FF92BD
S11307704B015C01CA01B90125E33AEF4EE85CE3A1
S11307800E944A140E94B7146B017C0125E33AEFDE
S11307904EE85CE3C501B4010E944A140E94B714F8
S11307A09B01AC01C701B6010E944A140E940611C4
S11307B021EE3EE245E652E40E944A14FF90EF9097
S11307C0DF90CF90BF90AF909F908F900895CF927D
S11307D0DF92EF92FF926B017C0120E030E040E871
S11307E05FEB0E943D1418163CF52FE135E843EA0F
S11307F050E4C701B6010E949A109B01AC016DEC54
S11308007CEC84E291E40E949D119B01AC01C70140
S1130810B6010E949A1025E33AEF4EE85CE30E9489
S11308204A140E9409159B01AC0160E77EEC88E83C
S11308309CE30E949D1103C060E070E0CB01FF9037
S1130840EF90DF90CF9008952F923F924F925F9256
S11308506F927F928F929F92AF92BF92CF92DF92CC
S1130860EF92FF920F931F93CF93DF93CDB7DEB731
S11308706497CDBFDEBF8F87988B6D877E874B8B48
S11308805C8BFC014088518866847784C484D58459
S1130890A201B301C6010E945F01682F70E05B01F1
S11308A0F2E0AF0EB11CEF85F889868897888489B9
S11308B095898D839E832288338891012A193B0967
S11308C074018C01A201B301C6010E94B00124E6A7
S11308D031EA45E15AE40E94991020E03DEA4EE0F5
S11308E057E40E949D116B017C010E946A022B0156
S11308F03C01A70196010E94950269837A838B8348
S11309009C8321ED36EF4EE959E3C701B6010E94FD
S11309104A1425EC30EA4CE057E40E949A109B01FB
S1130920AC01C701B6010E944A1425EB3BE34CE835
S113093053E40E949A1020E030E044EB53E40E9418
S1130940A41269877A878B879C87A30192016981A6
S11309507A818B819C810E9499109B01AC016985ED
S11309607A858B859C850E949A10A70196010E9426
S113097028032B013C01C701B6010E946D039B01B2
S1130980AC01C301B2010E94B00369877A878B87E7
S11309909C8725EC30EA4CE057E4C701B6010E947D
S11309A04A1425EB3BE34CE853E40E949A106B0194
S11309B07C01A30192010E9499102B013C0125E3C3
S11309C03AEF4EE05DE3C701B6010E944A140E946B
S11309D0B71422EF32ED4DE150E40E944A149B011A
S11309E0AC01C301B2010E949A102B013C0125E322
S11309F03AEF4EE85DE3C701B6010E944A140E9433
S1130A00B71427E836E149E55DE30E944A149B01E7
S1130A10AC01C301B2010E94991020E030E040E82B
S1130A2050E40E944A1469837A838B839C838CE309
S1130A30829D7001839DF00C1124E00EF11EB4011F
S1130A40990C880B990B0E94471220E030E040E794
S1130A5052E40E949D112B013C01B701FF0C880B4D
S1130A60990B0E944712A30192010E949A109B01C4
S1130A70AC0169817A818B819C810E949A106B01FF
S1130A807C01EF85F889648175818681978120E0F6
S1130A9030E040E850E40E944A149B01AC01C701D5
S1130AA0B6010E949A106B017C01B501BB0C880B46
S1130AB0990B0E94471220E030E040E752E40E9484
S1130AC04A149B01AC01C701B6010E94991020E0B1
S1130AD030E040E752E40E949D1120E030E040E421
S1130AE051E40E94991020E030E040E751E40E9474
S1130AF04A1469837A838B839C83EF85F8896081A8
S1130B0071818281938125E33AEF4EE85CE30E9490
S1130B104A146B017C0125E33AEF4EE85CE36985F6
S1130B207A858B859C850E944A144B015C0125E3E0
S1130B303AEF4EE85CE369817A818B819C810E9463
S1130B404A1469877A878B879C87C701B6010E94FC
S1130B50B7146D837E838F839887C501B4010E9487
S1130B60B7142B013C019B01AC016D817E818F8107
S1130B7098850E944A146F87788B898B9A8BC7015A
S1130B80B6010E9498116B017C01C501B4010E9459
S1130B9098119B01AC01C701B6010E944A144B0194
S1130BA05C0169857A858B859C850E9498119B01DF
S1130BB0AC01C501B4010E944A149B01AC016F85CC
S1130BC0788989899A890E949A100E94061121EED7
S1130BD03EE245E652E40E944A144B015C01ED8575
S1130BE0FE8560837183828393830E94E7039B0164
S1130BF0AC01C501B4010E949A10ED85FE856083A5
S1130C0071838283938325E33AEF4EE85CE30E9489
S1130C104A144B015C010E94B7149B01AC016D8125
S1130C207E818F8198850E944A149B01AC01C30187
S1130C30B2010E9499102B013C01C501B4010E942C
S1130C4098119B01AC01C701B6010E944A149B0193
S1130C50AC01C301B2010E949D110E94881021EED3
S1130C603EE245E652E40E944A146B017C0120E016
S1130C7030E0A90169817A818B819C810E943D14B5
S1130C8018167CF4A701960160E070E084EB93E40D
S1130C900E949910EB89FC8960837183828393831A
S1130CA006C0EB89FC89C082D182E282F382649619
S1130CB0CDBFDEBFDF91CF911F910F91FF90EF90D9
S1130CC0DF90CF90BF90AF909F908F907F906F9068
S1130CD05F904F903F902F9008952F923F924F92A4
S1130CE05F926F927F928F929F92AF92BF92CF92B8
S1130CF0DF92EF92FF920F931F93CF93DF93CDB7C1
S1130D00DEB7EF97CDBFDEBF8BAB2DB73EB72CABB5
S1130D103DAB8AE0E6EFF5EBDE01119601900D9212
S1130D208A95E1F73BA9333009F41AC64DB75EB78B
S1130D304EAF5FAF832F90E08CAF9DAFFC01EE0F01
S1130D40FF1FA1E0B0E0AC0FBD1FEA0FFB1F408006
S1130D505180F201218130E0C9010196880F991F69
S1130D60880F991F481B590B4DBF5EBFADB7BEB767
S1130D701196ADA7BEA7EDB7FEB7E81BF90BEDBF03
S1130D80FEBF4DB75EB74F5F5F4F4FA758ABADB7D0
S1130D90BEB7A81BB90BADBFBEBFEDB7FEB731964A
S1130DA0EAAFFBAFED8FFE8F4DB75EB7481B590B13
S1130DB04DBF5EBFADB7BEB71196A9ABBAAB220F9C
S1130DC0331F220F331FEDB7FEB7E21BF30BEDBF4A
S1130DD0FEBF4DB75EB74F5F5F4F4FA358A73A01B1
S1130DE0ADB7BEB7A21BB30BADBFBEBFEDB7FEB769
S1130DF03196EEABFFABEB8FFC8F2DB73EB7281BC4
S1130E00390B2DBF3EBF4DB75EB74F5F5F4F49A74C
S1130E105AA749A35AA3ADB7BEB7A81BB90BADBF18
S1130E20BEBFEDB7FEB73196E8AFF9AFEB8BFC8BE5
S1130E302DB73EB7281B390B2DBF3EBF4DB75EB74C
S1130E404F5F5F4F4BA75CA74F8F58A300E010E0A4
S1130E5029C0D20112962D913C9113977801BFEFCE
S1130E60EB1AFB0AF701EE0FFF1FEE0FFF1FE20F55
S1130E70F31F6081718182819381000F111F000F24
S1130E80111FF901E00FF11F20813181428153814B
S1130E900E949910F301E00FF11F60837183828334
S1130EA093838701D2011196EC91EE2EF12CB1E0DF
S1130EB0EB1AF1080E151F0564F22E2FEBA9E4308E
S1130EC049F080E090E0A4EBB3E48BA39CA3ADA332
S1130ED0BEA308C080E090E0A4EBB2E48BA39CA383
S1130EE0ADA3BEA3F201A281B381E22FF0E0E150F1
S1130EF0F04CEE0FFF1FEE0FFF1FEA0FFB1F608188
S1130F007181828193812D913D914D915C910E94DB
S1130F1099109F772BA13CA14DA15EA10E94A41220
S1130F209B01AC016BA17CA18DA19EA10E94991093
S1130F30EE0CFF1CEE0CFF1CEFA1F8A5EE0DFF1D3F
S1130F406083718382839383CC24C394D12CA4C003
S1130F507601EE0CFF1CEE0CFF1CF301EE0DFF1DE1
S1130F60208131814281538160E070E080E490E42B
S1130F700E949D116F8B788F898F9A8FD20114965E
S1130F80AD90BC9015974601BFEF8B1A9B0AF201F6
S1130F902080312CF401E20DF31DEE0FFF1FEA0D4A
S1130FA0FB1D60817181072E000C880B990B0E9438
S1130FB047126F87788B898B9A8BF601E20DF31DAC
S1130FC0EE0FFF1FEA0DFB1D60817181072E000CDF
S1130FD0880B990B0E9447126B877C878D879E87AD
S1130FE09B01AC016F85788989899A890E9499103F
S1130FF09B01AC016F89788D898D9A8D0E944A146A
S11310006F87788B898B9A8B860101501109F801BF
S1131010EE0FFF1FEE0FFF1FE60DF71D208131813C
S11310204281538160E070E080E490E40E949D116D
S11310306F8B788F898F9A8FF101E00FF11FEE0F7C
S1131040FF1FEA0DFB1D60817181072E000C880BC8
S1131050990B0E9447129B01AC016B857C858D85A1
S11310609E850E9499109B01AC016F89788D898DB2
S11310709A8D0E944A149B01AC016F8578898989F5
S11310809A890E949910EB8DFC8DEE0DFF1D6083F3
S11310907183828393836401D20111960C9110E0D1
S11310A07801B1E0EB1AF108CE14DF040CF450CF50
S11310B06701CC0CDD1CCC0CDD1CEFA1F8A5EC0DFC
S11310C0FD1D208131814281538160E070E080E424
S11310D090E40E949D116F8B788F898F9A8FF20113
S11310E0A480B5802080312CF101EE0FFF1FEA0DA2
S11310F0FB1D60817181072E000C880B990B0E94E7
S113110047126F87788B898B9A8BF701E20DF31D59
S1131110EE0FFF1FEA0DFB1D60817181072E000C8D
S1131120880B990B0E9447126B877C878D879E875B
S11311309B01AC016F85788989899A890E949910ED
S11311409B01AC016F89788D898D9A8D0E944A1418
S11311506F87788B898B9A8B02501109F801EE0FF7
S1131160FF1FEE0FFF1F2FA138A5E20FF31F2081F1
S113117031814281538160E070E080E490E40E9418
S11311809D116F8B788F898F9A8F020D131DF80133
S1131190EE0FFF1FEA0DFB1D60817181072E000C0D
S11311A0880B990B0E9447129B01AC016B857C85CF
S11311B08D859E850E9499109B01AC016F89788D65
S11311C0898D9A8D0E944A149B01AC016F857889A0
S11311D089899A890E949910EEA9FFA9EC0DFD1D39
S11311E0608371838283938380E090E0A0E8BFE30F
S11311F0E9A5FAA580839183A283B383A8ADB9AD91
S11312001D921D921D921C921397EBA5FCA51082B2
S113121011821282138201E010E02F8C38A09EC04C
S1131220D20112962D913C9113974801BFEF8B1A6E
S11312309B0AF401EE0FFF1FEE0FFF1FE20FF31FD7
S11312406081718182819381F801E150F04CEE0F4D
S1131250FF1FEE0FFF1FE20FF31F20813181428138
S113126053810E9499109B01AC010E949A106B87D4
S11312707C878D879E877801E1E0EE1AF108EE0CF9
S1131280FF1CEE0CFF1C6301CE0CDF1CD6016D911C
S11312907D918D919C91EB89FC89EE0DFF1D208140
S11312A03181428153810E944A149B01AC016B85B8
S11312B07C858D859E850E9499109B01AC01000F51
S11312C0111F000F111FA9A0BAA0A00EB11EF50195
S11312D06083718382839383F301E00FF11F608144
S11312E07181828193810E949D11EB89FC89E00FB9
S11312F0F11F6083718382839383EB8DFC8DE00FF8
S1131300F11F20813181428153812B873C874D8796
S11313105E87D6016D917D918D919C91F101EE0DC9
S1131320FF1D20813181428153810E944A149B0117
S1131330AC016B857C858D859E850E949910F50195
S113134020813181428153810E949D11F101E00F7E
S1131350F11F60837183828393838401D201119688
S11313608C91E82EF12C6701B1E0CB1AD1080C1551
S11313701D050CF455CFD2011296ED91FC911397F3
S1131380C7018250904C880F991F880F991FE80F4E
S1131390F91F20813181428153816BA17CA18DA1F0
S11313A09EA10E9499109B01AC010E949A104B01CE
S11313B05C01B2E0EB1AF108EE0CFF1CEE0CFF1C12
S11313C0EFA1F8A5EE0DFF1D6081718182819381EB
S11313D0E8ADF9ADEE0DFF1D2081318142815381CD
S11313E00E944A149B01AC01C501B4010E949910EA
S11313F0CC0CDD1CCC0CDD1CE9A5FAA5EC0DFD1D07
S11314006083718382839383F201818190E08C01F4
S113141001501109000F111F000F111FEEA9FFA9A0
S1131420E00FF11FC080D180E280F38002979C011D
S1131430220F331F220F331FEFA1F8A5E20FF31F72
S11314406081718182819381EBA5FCA5E20FF31F7A
S113145020813181428153810E944A149B01AC0155
S1131460C701B6010E949910E9A5FAA5E00FF11F82
S113147020813181428153810E949D11EBA5FCA5FD
S1131480E00FF11F6083718382839383D2011196ED
S1131490EC91F0E0EE0FFF1FEE0FFF1F29A53AA518
S11314A0E20FF31F80E090E0A0E8BFE38083918324
S11314B0A283B383D2011196EC911197F0E0EE0F61
S11314C0FF1FEE0FFF1F2BA53CA5E20FF31F108299
S11314D01182128213821196EC911197F0E0EE0FB3
S11314E0FF1FEE0FFF1F4AAD5BADE40FF51F108227
S11314F011821282138211968C9190E01C0151E0AA
S1131500251A310801C15101AA0CBB1CAA0CBB1C31
S1131510EF8DF8A1EA0DFB1D80819181A281B38139
S11315208B879C87AD87BE87EB89FC89EA0DFB1D01
S113153060817181828193816101AFEFCA1ADA0AF5
S11315409601220F331F220F331F8D8C9E8C820E27
S1131550931EF40120813181428153810E944A14F7
S11315609B01AC016B857C858D859E850E949910BD
S11315706B877C878D879E872D8D3E8D2A0D3B1D25
S11315802B8F3C8FD9016D937D938D939C931397EF
S1131590F201E480F580008110E0F601E00FF11F14
S11315A0EE0FFF1FEE0DFF1D60817181072E000CF1
S11315B0880B990B0E9447126F87788B898B9A8BC3
S11315C0020D131D000F111FF701E00FF11F6081C1
S11315D07181072E000C880B990B0E9447129B0106
S11315E0AC016F85788989899A890E949910830151
S11315F00A0D1B1DD801CD90DD90ED90FC90A70144
S113160096010E949D116F8B788F898F9A8FD401D8
S11316102D913D914D915C912F87388B498B5A8B3D
S11316202B853C854D855E85CA01B9010E949A10BF
S11316309B01AC016F85788989899A890E949A10E7
S11316409B01AC01C701B6010E944A1420E030E0BE
S113165040E450E40E949D119B01AC016F89788D98
S1131660898D9A8D0E949910EFA5F8A9EA0DFB1DAA
S11316706083718382839383F401608171818281A9
S11316809381AB8DBC8D2D913D914D915C910E94C8
S113169099106B017C01F8016081718182819381D1
S11316A020E030E040E450E40E944A149B01AC0185
S11316B0C701B6010E949D11E9A9FAA9EA0DFB1D13
S11316C06083718382839383D20114968D919C915C
S11316D015972C91F101E20FF11DEE0FFF1FE80F9A
S11316E0F91F60817181072E000C880B990B0E94F1
S11316F04712EDA5FEA5EA0DFB1D6083718382836D
S11317009383B1E02B1A310833200CF0FCCEC12CAA
S1131710D12CB12CA12C19A21FA219A61BA61F8A79
S11317201F8E312C212C8DA49EA46FA478A83B8EEF
S11317302F8629A83AA8D9C0F201E180F12CF1E062
S1131740EF1AF108870129C0D2011296ED91FC919C
S11317501397C801880F991F880F991FE80FF91F65
S113176020813181428153816C2D7D2D8B2D9A2DC9
S11317700E943D1488239CF40E151F0561F42C2D42
S11317803D2D4B2D5A2D6BA17CA18DA19EA10E94B4
S11317909311882321F0015011091123ACF6D201D1
S11317A01296ED91FC911397000F111F000F111F5A
S11317B0E00FF11F20813181428153816C2D7D2DF9
S11317C08B2D9A2D0E9499106B877C878D879E871D
S11317D0F401E00FF11F20813181428153812B8B71
S11317E03C8B4D8B5E8BF301E00FF11F2081318127
S11317F0428153810E944A149B01AC016B897C890C
S11318008D899E890E949A106B8B7C8B8D8B9E8B0D
S1131810ED8DFE8DE00FF11F2081318142815381D6
S11318206B857C858D859E850E944A149B01AC0145
S11318306B857C858D859E850E944A149B01AC0135
S11318406B897C898D899E890E949A106B8B7C8B15
S11318508D8B9E8BF101E00FF11F2081318142813C
S113186053816B857C858D859E850E944A149B01DE
S1131870AC016B857C858D859E850E944A149B01F5
S1131880AC016B857C858D859E850E944A149B01E5
S1131890AC016B897C898D899E890E949A10E62E01
S11318A0F72E082F192F262F372F482F592F6F89DE
S11318B07F8D8B8D9F850E949311882344F4C9A248
S11318C0DFA2B9A6ABA6EF8AFF8E0B8F1F872DEC84
S11318D03CEC4CEC5DE36C2D7D2D8B2D9A2D0E9400
S11318E09A10C62ED72EB82EA92E2C2D3D2D4B2D59
S11318F05A2D6BA17CA18DA19EA10E943D14882329
S11319000CF01ACF3B8C2F843BA9343079F06F89CB
S11319107F8D832D922D0E940F12ECADFDADEE0F45
S1131920FF1FEE58F64C608371830CC089A19FA100
S1131930A9A5BBA58093193890931A38A0931B3896
S1131940B0931C3889A19FA1A9A5BBA5F2018683E8
S11319509783A087B1872EAD3FAD2DBF3EBF1BC07F
S11319603BA9832F90E0880F991FE1E0F0E0EC0F92
S1131970FD1FE80FF91F0190F081E02DE081F0E0F8
S1131980EE0FFF1FE658F64C20813181FC01EE5822
S1131990F64C208331834CA95DA94DBF5EBFEF9601
S11319A0CDBFDEBFDF91CF911F910F91FF90EF90DC
S11319B0DF90CF90BF90AF909F908F907F906F906B
S11319C05F904F903F902F9008952F923F926F9287
S11319D07F928F929F92AF92BF92CF92DF92EF92BB
S11319E0FF920F931F93CF93DF93CDB7DEB7649726
S11319F0CDBFDEBF282E88E0E0E0F6EBDE011196D5
S1131A0001900D928A95E1F710E0C12CD12C76015A
S1131A1017C0E12FF0E0EE0FFF1FEE58F64C608187
S1131A207181072E000C880B990B0E9447129B01B1
S1131A30AC01C701B6010E949A106B017C011F5FC3
S1131A40143038F3312C198A1A8A1B8A1C8A1D8691
S1131A501E861F86188A84C0032D10E0000F111FF4
S1131A60E1E0F0E0EC0FFD1FE00FF11F60807180FA
S1131A70F30186809780A084B184622D70E080E0B9
S1131A8090E00E9447129B01AC01C501B4010E9481
S1131A909D1125E33AEF4EE85CE30E944A146987FE
S1131AA07A878B879C87F301628573858485958506
S1131AB020E030E040E05FE30E944A144B015C0107
S1131AC0F801EE58F64C60817181072E000C880BEA
S1131AD0990B0E9447129B01AC01C701B6010E94F9
S1131AE09D1120E030E040E05FE30E944A149B0136
S1131AF0AC01C501B4010E949A104B015C016985D7
S1131B007A858B859C850E9498119B01AC01C50147
S1131B10B4010E944A149B01AC016D857E858F85BA
S1131B2098890E949A106D877E878F87988B698524
S1131B307A858B859C850E94B7149B01AC01C501F5
S1131B40B4010E944A149B01AC0169897A898B898A
S1131B509C890E949A10698B7A8B8B8B9C8B339413
S1131B60F3E0F31508F078CF2D853E854F8558892D
S1131B7069897A898B899C890E94341120EE3EE21E
S1131B8045E652E40E944A146B017C0120E030E0F7
S1131B90A9010E949311882354F420E030E044EB1F
S1131BA053E4C701B6010E949A106B017C01622DB7
S1131BB070E080E090E00E944712A70196010E9425
S1131BC04A1460932C3870932D3880932E38909358
S1131BD02F386496CDBFDEBFDF91CF911F910F9157
S1131BE0FF90EF90DF90CF90BF90AF909F908F9039
S1131BF07F906F903F902F90089588ED84BF10924E
S1131C0061008091630080FDFCCFA0E0B4E080EF30
S1131C1011968C931197E0E2F4E085E0818388E0EB
S1131C208283808B828B838B86E012968C931297AF
S1131C3084E051968C93519752968C9308950E9408
S1131C40FD0D0E9431010E9469100E94E60E7894F5
S1131C500E94820FC0E004C08C2F0E946D06CF5FEB
S1131C60C530D0F381E00E94E50CCEE3D8E368816F
S1131C7059814A813B812C818D819E811F926F9372
S1131C801F925F931F924F931F923F931F922F9324
S1131C909F938F9388E096EB9F938F930E94851A6E
S1131CA00E945B0FE5E4F8E366817781A085B18546
S1131CB00BE218E3F80121813281438154819F931F
S1131CC08F93BF93AF937F936F935F934F933F93A0
S1131CD02F9388E296EB9F938F930E94851A8881B5
S1131CE0E0E0F8E390E0868B978B898190E0848B29
S1131CF0958B8A8190E0828B938B8B8190E0808B93
S1131D00918B8C8190E0868797878D819E818487D3
S1131D1095874AE358E367E278E3CF010E942404FD
S1131D20E8E1F8E382898F9381898F9380898F9387
S1131D3087858F93F80182898F9381898F93808916
S1131D408F9387858F9380E596EB9F938F930E9463
S1131D50851A8DB79EB784968DBF9EBF79CFAC018F
S1131D6083709927892BA1F49A0136952795369586
S1131D702795ABE7B4E10E9407199695879564E629
S1131D80689F9001699F300D112442175307D1F4C5
S1131D909A01329522952F7023273F702327AEE3B3
S1131DA0BAE00E94071920E931E0BC01629FC0013A
S1131DB0639F900D729F900D11244817590721F4C9
S1131DC081E0089581E0089580E0089580914101C3
S1131DD08111FCCFE0E4F1E0178281E0808382830B
S1131DE08FEF9FE78287938708951F920F920FB614
S1131DF00F9211242F933F934F935F936F937F938D
S1131E008F939F93AF93BF93CF93EF93FF9381E00F
S1131E1080934301EEE3F8E380818F5F80838081C8
S1131E208C33B8F1108281818F5F818381818C33FF
S1131E3080F1118282818F5F82838281883148F1AF
S1131E40128283818F5F8383A481B0E0A359B94454
S1131E50CC918481823041F480914338909144380C
S1131E600E94AF0E8111CDE180914138C81788F4EA
S1131E70EEE3F8E381E0838384818F5F848384814C
S1131E808D3038F081E08483858196810196858345
S1131E909683FF91EF91CF91BF91AF919F918F91D5
S1131EA07F916F915F914F913F912F910F900FBE52
S1131EB00F901F9018950F931F9390E000E010E08F
S1131EC0980111C0E92FF0E0EE0FFF1FE658F64C21
S1131ED040815181052E000C660B770B040F151FF2
S1131EE0261F371F9F5F903268F3D901C801689499
S1131EF014F8B695A795979587951694D1F71F91E1
S1131F000F9108953F924F925F926F927F928F92BA
S1131F109F92AF92BF92CF92DF92EF92FF920F9374
S1131F201F93CF93DF93CDB7DEB72697CDBFDEBF28
S1131F30312CE12C10E1F12E00E010E0E982FA826C
S1131F400B831C8392C0832D8295807F809304042D
S1131F5087EE93E00197F1F700C00000C12CD12C6B
S1131F607601812C912C5401412C512C32011BC03F
S1131F7082E00E944901092E000CAA0BBB0B480EFB
S1131F80591E6A1E7B1E81E00E944901092E000C25
S1131F90AA0BBB0B880E991EAA1EBB1E9FEFC91A63
S1131FA0D90AE90AF90AA0E5CA16A3ECDA06E1049B
S1131FB0F104F0F2E32CF12CED82FE82F701E556F8
S1131FC0F74C008110E00F2EF0E5CF2EF3ECDF2E5E
S1131FD0E12CF12CF02DC301B201A70196010E945E
S1131FE0E818000F111F0658164CD8012D933C9386
S1131FF0ED81FE81E557F74CF0812F2F30E02D83E2
S11320003E83C501B401A70196010E94E818ED8042
S1132010FE80EE0CFF1CC7018658964CDC012D9304
S11320203C93F80180819181092E000CAA0BBB0B13
S1132030E980FA800B811C818E159F05A007B107EA
S113204014F0D801C7017901330F000B110BE98299
S1132050FA820B831C83E816F9060A071B0724F08F
S113206089839A83AB83BC8333940F2EFFE0FF2EC6
S1132070F02DF31408F067CF20E014C0E22FF0E055
S113208089819A8199231CF4919581959109EE0F88
S1132090FF1FE658F64C40815181840F951F8083C1
S11320A091832F5F203250F32696CDBFDEBFDF91A0
S11320B0CF911F910F91FF90EF90DF90CF90BF9041
S11320C0AF909F908F907F906F905F904F903F90D4
S11320D00895E0E0F8E081E085838DE695E080876F
S11320E0918782EC868383E087838BE399E38093F3
S11320F0BC399093BD3908959091040895FFFCCFA5
S11321008093020808950E947C1080E090E0089576
S11321109F939F770E94ED120F90002042F49058F5
S1132120A2EA2AED3FE049E450E40E94B1100C9485
S1132130D7135058BB27AA270E94B1100C94D71369
S11321400E949E1338F00E94A51320F039F49F3F9B
S113215019F426F40C9460130EF4E095E7FB0C9448
S11321603113E92F0E94FC1358F3BA17620773075F
S11321708407950720F079F4A6F50C9436140EF430
S1132180E0950B2EBA2FA02D0B01B90190010C0183
S1132190CA01A0011124FF27591B99F0593F50F49B
S11321A0503E68F11A16F040A22F232F342F4427F3
S11321B0585FF3CF469537952795A795F0405395EB
S11321C0C9F77EF41F16BA0B620B730B840BBAF0BB
S11321D09150A1F0FF0FBB1F661F771F881FC2F726
S11321E00EC0BA0F621F731F841F48F4879577953A
S11321F06795B795F7959E3F08F0B0CF9395880FF4
S113220008F09927EE0F9795879508959F939F77E8
S1132210EEE389379E0728F4E8E7F0E00E948A138A
S11322200CC00E94ED129058A2EA2AED3FE049EC5E
S11322305FE30E94B1100E94D7130F9007FC9058DF
S113224008950E949E1360F080E891E009F49EEFE7
S11322500E94A51328F040E851E071F45EEF0CC031
S11322600C9460130C943614E92FE0780E94FC134C
S113227040F3092E052AB1F32617370748075907F3
S113228038F00E2E07F8E02569F0E025E0640AC076
S1132290EF6307F8009407FADB01B9019D01DC0143
S11322A0CA01AD01EF930E94B4110E94D7130E949A
S11322B064115F91552339F02BED3FE049E450FD63
S11322C049EC0C949A100895DF93DD27B92FBF775A
S11322D040E85FE31616170648075B0718F4D92F82
S11322E00E9442149F938F937F936F930E940515CE
S11322F0ECE8F0E00E9463130E94D7132F913F9102
S11323004F915F910E945D14DD2351F09058A2EA31
S11323102AED3FE049EC5FE3D0785D270E94B110DD
S1132320DF910C94D7130E940D1308F481E00895F3
S11323300E94AE13E3950C94E8130E94B1110C941F
S1132340D7130E94A51358F00E949E1340F029F45D
S11323505F3F29F00C94311351110C9437140C94F1
S113236060130E94FC1368F39923B1F3552391F38E
S1132370951B550BBB27AA2762177307840738F0F0
S11323809F5F5F4F220F331F441FAA1FA9F335D04D
S11323900E2E3AF0E0E832D091505040E695001C01
S11323A0CAF72BD0FE2F29D0660F771F881FBB1FBB
S11323B0261737074807AB07B0E809F0BB0B802D99
S11323C0BF01FF2793585F4F3AF09E3F510578F0C5
S11323D00C9431130C9437145F3FE4F3983ED4F318
S11323E0869577956795B795F7959F5FC9F7880F99
S11323F0911D9695879597F90895E1E0660F771FEB
S1132400881FBB1F621773078407BA0720F0621B7B
S1132410730B840BBA0BEE1F88F7E09508950E94A6
S113242016126894B1110C94371408950E94041480
S113243088F09F5798F0B92F9927B751B0F0E1F081
S1132440660F771F881F991F1AF0BA95C9F714C031
S1132450B13091F00E943614B1E008950C94361412
S1132460672F782F8827B85F39F0B93FCCF386956A
S113247077956795B395D9F73EF4909580957095C7
S113248061957F4F8F4F9F4F0895E89409C097FB44
S11324903EF490958095709561957F4F8F4F9F4F37
S11324A09923A9F0F92F96E9BB279395F69587957B
S11324B077956795B795F111F8CFFAF4BB0F11F43E
S11324C060FF1BC06F5F7F4F8F4F9F4F16C08823E5
S11324D011F096E911C0772321F09EE8872F762F1B
S11324E005C0662371F096E8862F70E060E02AF05C
S11324F09A95660F771F881FDAF7880F9695879548
S113250097F908950E941E1490F09F3748F4911192
S113251016F00C94371460E070E080E89FEB0895A7
S113252026F41B16611D711D811D0C9437130C9428
S113253052130E949E1320F019F00E94A51350F428
S11325400C9460130C943714E92F0E94FC1388F345
S11325505523B1F3E7FB6217730784079507A8F1C6
S113256089F3E92FFF2788232AF03197660F771F15
S1132570881FDAF7952F5527442332F091505040A5
S1132580220F331F441FD2F7BB27E91BF50B621B35
S1132590730B840BB109B1F222F4620F731F841F11
S11325A0B11D31972AF0660F771F881FBB1FEFCF2D
S11325B09150504062F041F0882332F0660F771F4B
S11325C0881F91505040C1F793950C9452138695EF
S11325D0779567959F5FD9F7F7CFDF93CF931F93D5
S11325E00F938B01EC01E9EBF0E00E9463130E946E
S11325F0D7139801AE018B01EC0160E070E080E834
S11326009FE30E9499100E94C5149801AE010F9196
S11326101F91CF91DF910C945D14990F0008550F11
S1132620AA0BE0E8FEEF16161706E807F907C0F054
S113263012161306E407F50798F0621B730B840B5C
S1132640950B39F40A2661F0232B242B252B21F436
S113265008950A2609F4A140A6958FEF811D811DD6
S1132660089597F99F6780E870E060E008958823F3
S113267071F4772321F09850872B762F07C06623B7
S113268011F499270DC09051862B70E060E02AF078
S11326909A95660F771F881FDAF7880F96958795A6
S11326A097F908959F3F31F0915020F487957795DD
S11326B06795B795880F911D9695879597F9089515
S11326C09FEF80EC0895DF93CF931F930F93FF92B6
S11326D0EF92DF927B018C01689406C0DA2EEF0141
S11326E00E945D14FE01E894A591259135914591D0
S11326F05591A6F3EF010E94B110FE019701A801C4
S1132700DA9469F7DF90EF90FF900F911F91CF91CA
S1132710DF9108959F938F937F936F93FF93EF932C
S11327209B01AC010E944A14EF91FF910E94631334
S11327302F913F914F915F910C944A1400240A9475
S11327401616170618060906089500240A94121688
S113275013061406050608950C9460130E940414CD
S1132760D8F3E894E0E0BB279F57F0F02AED3FE070
S113277049EC06C0EE0FBB0F661F771F881F28F0B9
S1132780B23A62077307840728F0B25A620B730BDC
S1132790840BE3959A9572F7803830F49A95BB0FC1
S11327A0661F771F881FD2F790480C945413092E84
S11327B00394000C11F4882352F0BB0F40F4BF2B98
S11327C011F460FF04C06F5F7F4F8F4F9F4F0895D8
S11327D0EF93E0FF07C0A2EA2AED3FE049EC5FEB8C
S11327E00E94B1100E94D7130F90039401FC9058DB
S11327F0E1EEF0E00C948A1357FD9058440F551FF6
S113280059F05F3F71F04795880F97FB991F61F06E
S11328109F3F79F087950895121613061406551FE5
S1132820F2CF4695F1DF08C0161617061806991F51
S1132830F1CF869571056105089408950E940414EA
S1132840A0F0BEE7B91788F4BB279F3860F41616CA
S1132850B11D672F782F8827985FF7CF86957795D6
S11328606795B11D93959639C8F30895E894BB27ED
S113287066277727CB0197F908950E940D1308F472
S11328808FEF08959B01AC0160E070E080E89FE366
S11328900C949D110E945D140C94D7130E949E13F6
S11328A038F00E94A51320F0952311F00C943113F5
S11328B00C94601311240C9437140E94FC1370F3CD
S11328C0959FC1F3950F50E0551F629FF001729FD1
S11328D0BB27F00DB11D639FAA27F00DB11DAA1FE0
S11328E0649F6627B00DA11D661F829F2227B00D2D
S11328F0A11D621F739FB00DA11D621F839FA00DB8
S1132900611D221F749F3327A00D611D231F849F07
S1132910600D211D822F762F6A2F11249F5750405E
S11329209AF0F1F088234AF0EE0FFF1FBB1F661FD9
S1132930771F881F91505040A9F79E3F510580F0A2
S11329400C9431130C9437145F3FE4F3983ED4F3A2
S1132950869577956795B795F795E7959F5FC1F746
S1132960FE2B880F911D9695879597F908959F934F
S11329700E94AE130F9007FCEE5F0C94E81319F459
S113298016F40C9460130C9452130E940414B8F3BC
S11329909923C9F3B6F39F57550B87FF0E942E1551
S11329A00024A0E640EA900180585695979528F4B3
S11329B0805C660F771F881F20F0261737074807AB
S11329C030F4621B730B840B202931294A2BA69502
S11329D017940794202531254A2758F7660F771F47
S11329E0881F20F026173707480730F4620B730B53
S11329F0840B200D311D411DA09581F7B901842F51
S1132A009158880F9695879508959B01AC010C9475
S1132A104A14DF93D92F0E94AE13E695D7952AED79
S1132A203FE049E45FE3B33A62077307840795071D
S1132A30D7953AF0A2EA49EC90680E94B1100E943E
S1132A40D713EFEFF0E00E948A13DD0F13F00E941A
S1132A504214DD0F0BF49058DF91089591505040CB
S1132A60660F771F881FD2F70895A0E1B0E0EBE36B
S1132A70F5E10C9416197C011B016A01FC01168214
S1132A801782838181FF44C39E012F5F3F4F390129
S1132A90F7019381F10193FD859193FF81911F01CA
S1132AA0882309F431C3853239F493FD859193FF6A
S1132AB081911F01853239F4B70190E00E94491ACF
S1132AC056016501E5CF10E0512C912CFFE1F91579
S1132AD0D8F08B3279F038F4803279F08332A1F473
S1132AE0F92DF0612EC08D3261F0803369F4292D07
S1132AF021602DC0392D3260932E892D8460982E4B
S1132B002AC0E92DE86015C097FC2DC020ED280FE0
S1132B102A3088F496FE06C03AE0139F200D112453
S1132B20122F19C08AE0589E200D1124522EE92D2F
S1132B30E0629E2E10C08E3231F496FCE5C2F92D6F
S1132B40F0649F2E08C08C3621F4292D2068922E23
S1132B5002C0883641F4F10193FD859193FF819180
S1132B601F018111B3CF9BEB980F933020F4992D63
S1132B709061805E07C09BE9980F933008F066C1AE
S1132B80992D9F7E96FF16E09F73992E853619F432
S1132B909064992E08C0863621F4392F3068932E1C
S1132BA002C01111115097FE07C01C3350F4442485
S1132BB04394410E27E00BC0183038F027E017E0AB
S1132BC005C027E09CE3492E02C0212F412C560169
S1132BD084E0A80EB11CF601608171818281938129
S1132BE0042DA3010E945B196C01F981FC87F0FF9D
S1132BF002C0F3FF06C091FC06C092FE06C000E2CC
S1132C0005C00DE203C00BE201C000E08C858C70AE
S1132C1019F001115AC29BC297FE10C04C0CFC85DE
S1132C20F4FF04C08A81813309F44A94141474F5BE
S1132C3028E0241578F588E0482E2CC096FC2AC09C
S1132C40812F90E08C159D059CF03CEFC3163FEF5F
S1132C50D30674F0892D8068982E0AC0E2E0F0E073
S1132C60EC0FFD1FE10FF11D8081803319F4115029
S1132C701111F4CF97FE0EC044244394410E812FCA
S1132C8090E0C816D9062CF41C1904C044244394BB
S1132C9001C010E097FE06C01C141D0434F4C601E4
S1132CA0019605C085E090E002C081E090E001114A
S1132CB00196112331F0212F30E02F5F3F4F820F17
S1132CC0931F252D30E08217930714F4581A01C07E
S1132CD0512C892D897049F4552039F0B70180E2CF
S1132CE090E00E94491A5A94F7CF002329F0B701C3
S1132CF0802F90E00E94491A93FC09C0552039F0B6
S1132D00B70180E390E00E94491A5A94F7CF97FEE6
S1132D104CC04601D7FE02C0812C912CC6018819F3
S1132D209909F301E80FF91FED87FE87960124192D
S1132D3031092F87388B012F10E011950195110966
S1132D403FEF8316930629F4B7018EE290E00E94C8
S1132D50491AC814D9044CF08F85988988159905A7
S1132D6024F4ED85FE85818101C080E3F1E08F1AB2
S1132D7091082D853E852F5F3F4F2D873E87801616
S1132D8091062CF0B70190E00E94491AD9CFC814DB
S1132D90D90441F49A81963320F4953319F43C858F
S1132DA034FF81E3B70190E04EC08A81813319F08A
S1132DB09C859F7E9C87B70190E00E94491A11115F
S1132DC005C094FC18C085E690E017C0B7018EE2F8
S1132DD090E00E94491A1E5F82E001E0080FF301AF
S1132DE0E80FF11D8081B70190E00E94491A802FFD
S1132DF00113F3CFE6CF85E490E0B7010E94491AAE
S1132E00D7FC06C0C114D10441F4EC85E4FF05C02D
S1132E10D194C194D1088DE201C08BE2B70190E056
S1132E200E94491A80E32AE0C216D1042CF08F5F75
S1132E30FAE0CF1AD108F7CFB70190E00E94491AFF
S1132E40B701C601C0960E94491A54C1833631F0B5
S1132E50833779F0833509F056C020C0560132E03B
S1132E60A30EB11CF6018081898301E010E06301A7
S1132E7012C05601F2E0AF0EB11CF601C080D18041
S1132E8096FE03C0612F70E002C06FEF7FEFC601B2
S1132E900E943E1A8C01F92DFF7714C0560122E0DE
S1132EA0A20EB11CF601C080D18096FE03C0612F32
S1132EB070E002C06FEF7FEFC6010E94331A8C01ED
S1132EC0F92DF0689F2EF3FD1AC0852D90E00817A8
S1132ED01907A8F4B70180E290E00E94491A5A94B5
S1132EE0F4CFF60197FC859197FE81916F01B701AC
S1132EF090E00E94491A51105A9401501109011589
S1132F00110579F7F7C0843611F0893661F5560159
S1132F1097FE09C024E0A20EB11CF6016081718104
S1132F20828193810AC0F2E0AF0EB11CF601608188
S1132F307181072E000C880B990BF92DFF769F2EBB
S1132F4097FF09C090958095709561957F4F8F4F3D
S1132F509F4FF0689F2E2AE030E0A3010E949B1A45
S1132F60C82EC6183FC0092D853721F40F7E2AE0EC
S1132F7030E01DC0097F8F3691F018F4883559F080
S1132F80C3C0803719F0883711F0BEC0006104FF58
S1132F9009C0046007C094FE08C0066006C028E0AB
S1132FA030E005C020E130E002C020E132E056010B
S1132FB007FF09C084E0A80EB11CF601608171818D
S1132FC08281938108C0F2E0AF0EB11CF6016081EA
S1132FD0718180E090E0A3010E949B1AC82EC6185C
S1132FE00F77902E96FE0BC0092D0E7FC11650F45C
S1132FF094FE0AC092FC08C0092D0E7E05C0DC2C8C
S1133000092D03C0DC2C01C0D12E04FF0DC0FE012C
S1133010EC0DF11D8081803311F4097E09C002FF9B
S113302006C0D394D39404C0802F867809F0D39437
S113303003FD11C000FF06C01C2DD51480F4150D2E
S11330401D190DC0D51458F4B70180E290E00E9418
S1133050491AD394F7CFD51410F45D1801C0512C3C
S113306004FF10C0B70180E390E00E94491A02FFF8
S113307017C001FD03C088E790E002C088E590E036
S1133080B7010CC0802F867859F001FF02C08BE293
S113309001C080E207FD8DE2B70190E00E94491A69
S11330A0C11638F4B70180E390E00E94491A115028
S11330B0F7CFCA94F301EC0DF11D8081B70190E0C4
S11330C00E94491AC110F5CF15C0F4E0F51560F55A
S11330D084E0581A93FE1FC0011127C02C8523FFDA
S11330E02AC002E211E0392D3071932EF801849147
S11330F0811124C0552009F4E4CCB70180E290E0AA
S11331000E94491A5A94F6CFF7018681978126C006
S11331108FEF9FEF23C0B70180E290E00E94491A2D
S11331205A945110F8CFD8CF512CB701802F90E08A
S11331300E94491AD3CF06E211E0D5CF91108052F4
S1133140B70190E00E94491A0F5F1F4FCFCF23E0D1
S1133150251510F483E0BDCF512CC0CF6096E2E179
S11331600C942F1997FB072E16F4009407D077FDC3
S113317009D00E94471907FC05D03EF4909581952B
S11331809F4F0895709561957F4F0895A1E21A2E7F
S1133190AA1BBB1BFD010DC0AA1FBB1FEE1FFF1FF7
S11331A0A217B307E407F50720F0A21BB30BE40B47
S11331B0F50B661F771F881F991F1A9469F760958E
S11331C07095809590959B01AC01BD01CF01089548
S11331D0052E97FB1EF400940E94FF1857FD07D09C
S11331E00E94C61807FC03D04EF40C94FF185095A7
S11331F04095309521953F4F4F4F5F4F08959095DF
S11332008095709561957F4F8F4F9F4F0895A29F32
S1133210B001B39FC001A39F700D811D1124911DA6
S1133220B29F700D811D1124911D08952F923F921C
S11332304F925F926F927F928F929F92AF92BF92C2
S1133240CF92DF92EF92FF920F931F93CF93DF936E
S1133250CDB7DEB7CA1BDB0BCDBFDEBF09942A880E
S1133260398848885F846E847D848C849B84AA8496
S1133270B984C884DF80EE80FD800C811B81AA8123
S1133280B981CE0FD11DCDBFDEBFED010895AA1BBC
S1133290BB1B51E107C0AA1FBB1FA617B70710F03D
S11332A0A61BB70B881F991F5A95A9F7809590956F
S11332B0BC01CD010895283008F027E03327DA0156
S11332C0990F311D87FD916000966105710539F4F0
S11332D032602E5F3D9330E32A95E1F708959F3FD6
S11332E030F080387105610509F03C5F3C5F3D9327
S11332F0913008F08068911DDF93CF931F930F9353
S1133300FF92EF92192F987F9695E92F96959695AF
S1133310E90FFF27EC57FE4F99273327EE24FF24AC
S1133320A701E70105900894079428F4360FE71ED7
S1133330F81E491F511D660F771F881F991F069499
S1133340A1F70590079428F4E70EF81E491F561FAD
S1133350C11D770F881F991F661F0694A1F705905A
S1133360079428F4F80E491F561FC71FD11D880F54
S1133370991F661F771F0694A1F70590079420F400
S1133380490F561FC71FD81F990F661F771F881F25
S11333900694A9F784911095177041F0D695C795B6
S11333A057954795F794E7941A95C1F7EAE2F1E047
S11333B068941590159135916591959105907FE2EA
S11333C07395E118F10A430B560BC90BD009C0F7EA
S11333D0E10CF11E431F561FC91FD01D7EF470332C
S11333E011F48A95E6CFE894015030F0080F0AF4FE
S11333F00027021708F4202F2395022F7A3328F090
S113340079E37D932A95E9F710C07D932A9589F68F
S1133410069497956795379517951794E118F10ACF
S1133420430B560BC90BD00998F023957E917395E5
S11334307A3308F070E37C932013B8F77E917061BF
S11334407D9330F0839571E37D9370E32A95E1F7E2
S11334501124EF90FF900F911F91CF91DF91992745
S113346087FD90950895FC0105906150704001100E
S1133470D8F7809590958E0F9F1F0895FC01615099
S1133480704001900110D8F7809590958E0F9F1F82
S113349008950F931F93CF93DF93FB01238121FDA5
S11334A003C08FEF9FEF2CC022FF16C046815781C7
S11334B0248135814217530744F4A081B1819D01D1
S11334C02F5F3F4F208331838C93268137812F5F79
S11334D03F4F2683378314C08B01EC01FB0100842A
S11334E0F185E02D0995892BE1F6D80116968D9189
S11334F09C911797019616968D939C931797CE01DE
S1133500DF91CF911F910F910895A0E0B0E0EBE817
S1133510FAE10C942619AE014B5F5F4FFA016191F9
S11335207191AF018091BC399091BD390E943515DC
S1133530E2E00C943F19FA01AA27283051F1203116
S113354081F1E8946F936E7F6E5F7F4F8F4F9F4F33
S1133550AF4FB1E03ED0B4E03CD0670F781F891F75
S11335609A1FA11D680F791F8A1F911DA11D6A0F43
S1133570711D811D911DA11D20D009F468943F91F6
S11335802AE0269F11243019305D3193DEF6CF01F5
S11335900895462F4770405D4193B3E00FD0C9F7BB
S11335A0F6CF462F4F70405D4A3318F0495D31FD28
S11335B04052419302D0A9F7EACFB4E0A69597957B
S11335C0879577956795BA95C9F700976105710551
S11335D008959B01AC010A2E06945795479537959B
S11335E02795BA95C9F7620F731F841F951FA01DF5
S10935F00895F894FFCFDA
S11335F67D386F386138533845387D386F386138CF
S11336065338202534642D253032642D2530326418
S113361620253032643A253032643A253032643A11
S11336262000417A2E3A202520352E3266207C2031
S1133636456C2E3A202520352E3266207C204C7689
S11336462E3A2025203564207C00417A432E3A20E8
S11336562520352E3266207C20456C432E3A2025C3
S113366620352E32660D0A001F1C1F1E1F1E1F1F2B
S10736761E1F1E1FD2
S113367ADEC65C425B5AC3410000A842E8070B005D
S113368A140010000000000000000000004A390085
S113369A000000000000000000000000000000001C
S11336AA5E3900000000000000000000000014035E
S11336BA0F150BE8070004AB38723900000000004C
S11336CA0000000001BB387A390000000000000045
S11336DA000104BF387A39000000007120043E0555
S11336EA0CCF387A3900000000F931C63E110FFFB9
S11336FA387A3900000000CFBDF73E041D0F1E06BC
S113370A011207101F0511130814090C19031A15BD
S113371A02160A0D1B0E1C170B18000000000000ED
S113372A00F041000070420000B4420000B44300BB
S113373A0000000000B44200003443000087430044
S113374A0000000000F041000070420000B4420092
S113375A00F04200001643000034430000524300C4
S113376A00704300008743000096430000A543000D
S113377A0000000000C041000040420000904200E6
S113378A00C0420000F04200001043000028430039
S113379A0040430000584300007043000084430083
S11337AA00904300009C430000A84300000002006C
S10D37BA000000831000000000006E
S9030000FC
